{
  "_format": "hh-sol-artifact-1",
  "contractName": "MyEpicNFT",
  "sourceName": "contracts/MyEpicNFT.sol",
  "abi": [
    {
      "inputs": [],
      "stateMutability": "nonpayable",
      "type": "constructor"
    },
    {
      "anonymous": false,
      "inputs": [
        {
          "indexed": true,
          "internalType": "address",
          "name": "owner",
          "type": "address"
        },
        {
          "indexed": true,
          "internalType": "address",
          "name": "approved",
          "type": "address"
        },
        {
          "indexed": true,
          "internalType": "uint256",
          "name": "tokenId",
          "type": "uint256"
        }
      ],
      "name": "Approval",
      "type": "event"
    },
    {
      "anonymous": false,
      "inputs": [
        {
          "indexed": true,
          "internalType": "address",
          "name": "owner",
          "type": "address"
        },
        {
          "indexed": true,
          "internalType": "address",
          "name": "operator",
          "type": "address"
        },
        {
          "indexed": false,
          "internalType": "bool",
          "name": "approved",
          "type": "bool"
        }
      ],
      "name": "ApprovalForAll",
      "type": "event"
    },
    {
      "anonymous": false,
      "inputs": [
        {
          "indexed": false,
          "internalType": "address",
          "name": "sender",
          "type": "address"
        },
        {
          "indexed": false,
          "internalType": "uint256",
          "name": "tokenId",
          "type": "uint256"
        }
      ],
      "name": "NewEpicNFTMinted",
      "type": "event"
    },
    {
      "anonymous": false,
      "inputs": [
        {
          "indexed": true,
          "internalType": "address",
          "name": "from",
          "type": "address"
        },
        {
          "indexed": true,
          "internalType": "address",
          "name": "to",
          "type": "address"
        },
        {
          "indexed": true,
          "internalType": "uint256",
          "name": "tokenId",
          "type": "uint256"
        }
      ],
      "name": "Transfer",
      "type": "event"
    },
    {
      "inputs": [
        {
          "internalType": "address",
          "name": "to",
          "type": "address"
        },
        {
          "internalType": "uint256",
          "name": "tokenId",
          "type": "uint256"
        }
      ],
      "name": "approve",
      "outputs": [],
      "stateMutability": "nonpayable",
      "type": "function"
    },
    {
      "inputs": [
        {
          "internalType": "address",
          "name": "owner",
          "type": "address"
        }
      ],
      "name": "balanceOf",
      "outputs": [
        {
          "internalType": "uint256",
          "name": "",
          "type": "uint256"
        }
      ],
      "stateMutability": "view",
      "type": "function"
    },
    {
      "inputs": [
        {
          "internalType": "uint256",
          "name": "tokenId",
          "type": "uint256"
        }
      ],
      "name": "getApproved",
      "outputs": [
        {
          "internalType": "address",
          "name": "",
          "type": "address"
        }
      ],
      "stateMutability": "view",
      "type": "function"
    },
    {
      "inputs": [],
      "name": "getTotalNFTsMintedSoFar",
      "outputs": [
        {
          "internalType": "uint256",
          "name": "",
          "type": "uint256"
        }
      ],
      "stateMutability": "view",
      "type": "function"
    },
    {
      "inputs": [
        {
          "internalType": "address",
          "name": "owner",
          "type": "address"
        },
        {
          "internalType": "address",
          "name": "operator",
          "type": "address"
        }
      ],
      "name": "isApprovedForAll",
      "outputs": [
        {
          "internalType": "bool",
          "name": "",
          "type": "bool"
        }
      ],
      "stateMutability": "view",
      "type": "function"
    },
    {
      "inputs": [],
      "name": "makeAnEpicNFT",
      "outputs": [],
      "stateMutability": "nonpayable",
      "type": "function"
    },
    {
      "inputs": [],
      "name": "name",
      "outputs": [
        {
          "internalType": "string",
          "name": "",
          "type": "string"
        }
      ],
      "stateMutability": "view",
      "type": "function"
    },
    {
      "inputs": [
        {
          "internalType": "uint256",
          "name": "tokenId",
          "type": "uint256"
        }
      ],
      "name": "ownerOf",
      "outputs": [
        {
          "internalType": "address",
          "name": "",
          "type": "address"
        }
      ],
      "stateMutability": "view",
      "type": "function"
    },
    {
      "inputs": [
        {
          "internalType": "uint256",
          "name": "tokenId",
          "type": "uint256"
        }
      ],
      "name": "pickRandomFirstWord",
      "outputs": [
        {
          "internalType": "string",
          "name": "",
          "type": "string"
        }
      ],
      "stateMutability": "view",
      "type": "function"
    },
    {
      "inputs": [
        {
          "internalType": "uint256",
          "name": "tokenId",
          "type": "uint256"
        }
      ],
      "name": "pickRandomSecondWord",
      "outputs": [
        {
          "internalType": "string",
          "name": "",
          "type": "string"
        }
      ],
      "stateMutability": "view",
      "type": "function"
    },
    {
      "inputs": [
        {
          "internalType": "uint256",
          "name": "tokenId",
          "type": "uint256"
        }
      ],
      "name": "pickRandomThirdWord",
      "outputs": [
        {
          "internalType": "string",
          "name": "",
          "type": "string"
        }
      ],
      "stateMutability": "view",
      "type": "function"
    },
    {
      "inputs": [
        {
          "internalType": "address",
          "name": "from",
          "type": "address"
        },
        {
          "internalType": "address",
          "name": "to",
          "type": "address"
        },
        {
          "internalType": "uint256",
          "name": "tokenId",
          "type": "uint256"
        }
      ],
      "name": "safeTransferFrom",
      "outputs": [],
      "stateMutability": "nonpayable",
      "type": "function"
    },
    {
      "inputs": [
        {
          "internalType": "address",
          "name": "from",
          "type": "address"
        },
        {
          "internalType": "address",
          "name": "to",
          "type": "address"
        },
        {
          "internalType": "uint256",
          "name": "tokenId",
          "type": "uint256"
        },
        {
          "internalType": "bytes",
          "name": "_data",
          "type": "bytes"
        }
      ],
      "name": "safeTransferFrom",
      "outputs": [],
      "stateMutability": "nonpayable",
      "type": "function"
    },
    {
      "inputs": [
        {
          "internalType": "address",
          "name": "operator",
          "type": "address"
        },
        {
          "internalType": "bool",
          "name": "approved",
          "type": "bool"
        }
      ],
      "name": "setApprovalForAll",
      "outputs": [],
      "stateMutability": "nonpayable",
      "type": "function"
    },
    {
      "inputs": [
        {
          "internalType": "bytes4",
          "name": "interfaceId",
          "type": "bytes4"
        }
      ],
      "name": "supportsInterface",
      "outputs": [
        {
          "internalType": "bool",
          "name": "",
          "type": "bool"
        }
      ],
      "stateMutability": "view",
      "type": "function"
    },
    {
      "inputs": [],
      "name": "symbol",
      "outputs": [
        {
          "internalType": "string",
          "name": "",
          "type": "string"
        }
      ],
      "stateMutability": "view",
      "type": "function"
    },
    {
      "inputs": [
        {
          "internalType": "uint256",
          "name": "tokenId",
          "type": "uint256"
        }
      ],
      "name": "tokenURI",
      "outputs": [
        {
          "internalType": "string",
          "name": "",
          "type": "string"
        }
      ],
      "stateMutability": "view",
      "type": "function"
    },
    {
      "inputs": [
        {
          "internalType": "address",
          "name": "from",
          "type": "address"
        },
        {
          "internalType": "address",
          "name": "to",
          "type": "address"
        },
        {
          "internalType": "uint256",
          "name": "tokenId",
          "type": "uint256"
        }
      ],
      "name": "transferFrom",
      "outputs": [],
      "stateMutability": "nonpayable",
      "type": "function"
    }
  ],
  "bytecode": "0x608060405260405180610160016040528061012f815260200162004db761012f913960089080519060200190620000389291906200102f565b506040518061028001604052806040518060400160405280600681526020017f4e617275746f000000000000000000000000000000000000000000000000000081525081526020016040518060400160405280600481526020017f457269630000000000000000000000000000000000000000000000000000000081525081526020016040518060400160405280600681526020017f49636869676f000000000000000000000000000000000000000000000000000081525081526020016040518060400160405280600881526020017f496e75796173686100000000000000000000000000000000000000000000000081525081526020016040518060400160405280600481526020017f476f6b750000000000000000000000000000000000000000000000000000000081525081526020016040518060400160405280600581526020017f566567746100000000000000000000000000000000000000000000000000000081525081526020016040518060400160405280600681526020017f536173756b65000000000000000000000000000000000000000000000000000081525081526020016040518060400160405280600681526020017f48696e617461000000000000000000000000000000000000000000000000000081525081526020016040518060400160405280600781526020017f54616e6a69726f0000000000000000000000000000000000000000000000000081525081526020016040518060400160405280600681526020017f4e657a756b6f000000000000000000000000000000000000000000000000000081525081526020016040518060400160405280600481526020017f4b6f6d690000000000000000000000000000000000000000000000000000000081525081526020016040518060400160405280600481526020017f4572656e0000000000000000000000000000000000000000000000000000000081525081526020016040518060400160405280600681526020017f4d697a696b61000000000000000000000000000000000000000000000000000081525081526020016040518060400160405280600481526020017f59756a690000000000000000000000000000000000000000000000000000000081525081526020016040518060400160405280600681526020017f4b61676f6d65000000000000000000000000000000000000000000000000000081525081526020016040518060400160405280600481526020017f4b6972610000000000000000000000000000000000000000000000000000000081525081526020016040518060400160405280600581526020017f4d7567656e00000000000000000000000000000000000000000000000000000081525081526020016040518060400160405280600781526020017f4b616b617368690000000000000000000000000000000000000000000000000081525081526020016040518060400160405280600581526020017f53656e6b7500000000000000000000000000000000000000000000000000000081525081526020016040518060400160405280600881526020017f416c70686f6e73650000000000000000000000000000000000000000000000008152508152506009906014620004f1929190620010c0565b506040518061028001604052806040518060400160405280600781526020017f436869636b656e0000000000000000000000000000000000000000000000000081525081526020016040518060400160405280600781526020017f5370696e6163680000000000000000000000000000000000000000000000000081525081526020016040518060400160405280600481526020017f456767730000000000000000000000000000000000000000000000000000000081525081526020016040518060400160405280600481526020017f426565660000000000000000000000000000000000000000000000000000000081525081526020016040518060400160405280600481526020017f546f66750000000000000000000000000000000000000000000000000000000081525081526020016040518060400160405280600881526020017f456767706c616e7400000000000000000000000000000000000000000000000081525081526020016040518060400160405280600981526020017f42726f636f6c696e69000000000000000000000000000000000000000000000081525081526020016040518060400160405280600681526020017f4761726c6963000000000000000000000000000000000000000000000000000081525081526020016040518060400160405280600681526020017f4f6e696f6e73000000000000000000000000000000000000000000000000000081525081526020016040518060400160405280600381526020017f4f6d75000000000000000000000000000000000000000000000000000000000081525081526020016040518060400160405280600581526020017f437572727900000000000000000000000000000000000000000000000000000081525081526020016040518060400160405280600381526020017f50686f000000000000000000000000000000000000000000000000000000000081525081526020016040518060400160405280600881526020017f426f6e426f48756500000000000000000000000000000000000000000000000081525081526020016040518060400160405280600481526020017f526963650000000000000000000000000000000000000000000000000000000081525081526020016040518060400160405280600681526020017f4b696d636869000000000000000000000000000000000000000000000000000081525081526020016040518060400160405280600781526020017f536561776565640000000000000000000000000000000000000000000000000081525081526020016040518060400160405280600681526020017f436f6e676565000000000000000000000000000000000000000000000000000081525081526020016040518060400160405280600581526020017f506173746100000000000000000000000000000000000000000000000000000081525081526020016040518060400160405280600581526020017f52616d656e00000000000000000000000000000000000000000000000000000081525081526020016040518060400160405280600581526020017f4b61747375000000000000000000000000000000000000000000000000000000815250815250600a906014620009aa929190620010c0565b506040518061028001604052806040518060400160405280600481526020017f4f7263610000000000000000000000000000000000000000000000000000000081525081526020016040518060400160405280600481526020017f546f61640000000000000000000000000000000000000000000000000000000081525081526020016040518060400160405280600481526020017f547265780000000000000000000000000000000000000000000000000000000081525081526020016040518060400160405280600781526020017f446f6c7068696e0000000000000000000000000000000000000000000000000081525081526020016040518060400160405280600581526020017f5768616c6500000000000000000000000000000000000000000000000000000081525081526020016040518060400160405280600581526020017f4561676c6500000000000000000000000000000000000000000000000000000081525081526020016040518060400160405280600381526020017f426174000000000000000000000000000000000000000000000000000000000081525081526020016040518060400160405280600381526020017f446f67000000000000000000000000000000000000000000000000000000000081525081526020016040518060400160405280600481526020017f4c696f6e0000000000000000000000000000000000000000000000000000000081525081526020016040518060400160405280600681526020017f436f75676172000000000000000000000000000000000000000000000000000081525081526020016040518060400160405280600481526020017f426561720000000000000000000000000000000000000000000000000000000081525081526020016040518060400160405280600381526020017f456c6b000000000000000000000000000000000000000000000000000000000081525081526020016040518060400160405280600681526020017f4c697a617264000000000000000000000000000000000000000000000000000081525081526020016040518060400160405280600681526020017f537069646572000000000000000000000000000000000000000000000000000081525081526020016040518060400160405280600681526020017f53616c6d6f6e000000000000000000000000000000000000000000000000000081525081526020016040518060400160405280600381526020017f436f77000000000000000000000000000000000000000000000000000000000081525081526020016040518060400160405280600381526020017f416e74000000000000000000000000000000000000000000000000000000000081525081526020016040518060400160405280600481526020017f5365616c0000000000000000000000000000000000000000000000000000000081525081526020016040518060400160405280600581526020017f4f7474657200000000000000000000000000000000000000000000000000000081525081526020016040518060400160405280600881526020017f456c657068616e74000000000000000000000000000000000000000000000000815250815250600b90601462000e63929190620010c0565b5034801562000e7157600080fd5b506040518060400160405280600981526020017f5371756172654e465400000000000000000000000000000000000000000000008152506040518060400160405280600681526020017f5351554152450000000000000000000000000000000000000000000000000000815250816000908051906020019062000ef69291906200102f565b50806001908051906020019062000f0f9291906200102f565b50505062000f5d6040518060400160405280601e81526020017f54686973206973206d79204e465420636f6e74726163742e20576f616821000081525062000f6360201b6200113c1760201c565b620012e1565b620010038160405160240162000f7a9190620011f5565b6040516020818303038152906040527f41304fac000000000000000000000000000000000000000000000000000000007bffffffffffffffffffffffffffffffffffffffffffffffffffffffff19166020820180517bffffffffffffffffffffffffffffffffffffffffffffffffffffffff83818316178352505050506200100660201b60201c565b50565b60008151905060006a636f6e736f6c652e6c6f679050602083016000808483855afa5050505050565b8280546200103d906200126b565b90600052602060002090601f016020900481019282620010615760008555620010ad565b82601f106200107c57805160ff1916838001178555620010ad565b82800160010185558215620010ad579182015b82811115620010ac5782518255916020019190600101906200108f565b5b509050620010bc919062001127565b5090565b82805482825590600052602060002090810192821562001114579160200282015b8281111562001113578251829080519060200190620011029291906200102f565b5091602001919060010190620010e1565b5b50905062001123919062001146565b5090565b5b808211156200114257600081600090555060010162001128565b5090565b5b808211156200116a57600081816200116091906200116e565b5060010162001147565b5090565b5080546200117c906200126b565b6000825580601f10620011905750620011b1565b601f016020900490600052602060002090810190620011b0919062001127565b5b50565b6000620011c18262001219565b620011cd818562001224565b9350620011df81856020860162001235565b620011ea81620012d0565b840191505092915050565b60006020820190508181036000830152620012118184620011b4565b905092915050565b600081519050919050565b600082825260208201905092915050565b60005b838110156200125557808201518184015260208101905062001238565b8381111562001265576000848401525b50505050565b600060028204905060018216806200128457607f821691505b602082108114156200129b576200129a620012a1565b5b50919050565b7f4e487b7100000000000000000000000000000000000000000000000000000000600052602260045260246000fd5b6000601f19601f8301169050919050565b613ac680620012f16000396000f3fe608060405234801561001057600080fd5b50600436106101165760003560e01c806370a08231116100a2578063b88d4fde11610071578063b88d4fde14610305578063c575757a14610321578063c87b56dd14610351578063de9d132f14610381578063e985e9c51461038b57610116565b806370a082311461026b57806395d89b411461029b578063a22cb465146102b9578063b187301f146102d557610116565b8063095ea7b3116100e9578063095ea7b3146101b757806323b872dd146101d35780632de38d68146101ef57806342842e0e1461021f5780636352211e1461023b57610116565b806301ffc9a71461011b578063060475901461014b57806306fdde0314610169578063081812fc14610187575b600080fd5b61013560048036038101906101309190612568565b6103bb565b6040516101429190612c95565b60405180910390f35b61015361049d565b6040516101609190612f30565b60405180910390f35b6101716104ae565b60405161017e9190612cb0565b60405180910390f35b6101a1600480360381019061019c91906125ba565b610540565b6040516101ae9190612c05565b60405180910390f35b6101d160048036038101906101cc919061252c565b6105c5565b005b6101ed60048036038101906101e89190612426565b6106dd565b005b610209600480360381019061020491906125ba565b61073d565b6040516102169190612cb0565b60405180910390f35b61023960048036038101906102349190612426565b61085b565b005b610255600480360381019061025091906125ba565b61087b565b6040516102629190612c05565b60405180910390f35b610285600480360381019061028091906123c1565b61092d565b6040516102929190612f30565b60405180910390f35b6102a36109e5565b6040516102b09190612cb0565b60405180910390f35b6102d360048036038101906102ce91906124f0565b610a77565b005b6102ef60048036038101906102ea91906125ba565b610a8d565b6040516102fc9190612cb0565b60405180910390f35b61031f600480360381019061031a9190612475565b610bab565b005b61033b600480360381019061033691906125ba565b610c0d565b6040516103489190612cb0565b60405180910390f35b61036b600480360381019061036691906125ba565b610d2b565b6040516103789190612cb0565b60405180910390f35b610389610e7d565b005b6103a560048036038101906103a091906123ea565b6110a8565b6040516103b29190612c95565b60405180910390f35b60007f80ac58cd000000000000000000000000000000000000000000000000000000007bffffffffffffffffffffffffffffffffffffffffffffffffffffffff1916827bffffffffffffffffffffffffffffffffffffffffffffffffffffffff1916148061048657507f5b5e139f000000000000000000000000000000000000000000000000000000007bffffffffffffffffffffffffffffffffffffffffffffffffffffffff1916827bffffffffffffffffffffffffffffffffffffffffffffffffffffffff1916145b806104965750610495826111d5565b5b9050919050565b60006104a9600761123f565b905090565b6060600080546104bd906131c4565b80601f01602080910402602001604051908101604052809291908181526020018280546104e9906131c4565b80156105365780601f1061050b57610100808354040283529160200191610536565b820191906000526020600020905b81548152906001019060200180831161051957829003601f168201915b5050505050905090565b600061054b8261124d565b61058a576040517f08c379a000000000000000000000000000000000000000000000000000000000815260040161058190612eb0565b60405180910390fd5b6004600083815260200190815260200160002060009054906101000a900473ffffffffffffffffffffffffffffffffffffffff169050919050565b60006105d08261087b565b90508073ffffffffffffffffffffffffffffffffffffffff168373ffffffffffffffffffffffffffffffffffffffff161415610641576040517f08c379a000000000000000000000000000000000000000000000000000000000815260040161063890612ef0565b60405180910390fd5b8073ffffffffffffffffffffffffffffffffffffffff166106606112b9565b73ffffffffffffffffffffffffffffffffffffffff16148061068f575061068e816106896112b9565b6110a8565b5b6106ce576040517f08c379a00000000000000000000000000000000000000000000000000000000081526004016106c590612df0565b60405180910390fd5b6106d883836112c1565b505050565b6106ee6106e86112b9565b8261137a565b61072d576040517f08c379a000000000000000000000000000000000000000000000000000000000815260040161072490612f10565b60405180910390fd5b610738838383611458565b505050565b6060600061077161074d846116bf565b60405160200161075d9190612bc1565b60405160208183030381529060405261186c565b9050600980549050816107849190613270565b9050600981815481106107c0577f4e487b7100000000000000000000000000000000000000000000000000000000600052603260045260246000fd5b9060005260206000200180546107d5906131c4565b80601f0160208091040260200160405190810160405280929190818152602001828054610801906131c4565b801561084e5780601f106108235761010080835404028352916020019161084e565b820191906000526020600020905b81548152906001019060200180831161083157829003601f168201915b5050505050915050919050565b61087683838360405180602001604052806000815250610bab565b505050565b6000806002600084815260200190815260200160002060009054906101000a900473ffffffffffffffffffffffffffffffffffffffff169050600073ffffffffffffffffffffffffffffffffffffffff168173ffffffffffffffffffffffffffffffffffffffff161415610924576040517f08c379a000000000000000000000000000000000000000000000000000000000815260040161091b90612e30565b60405180910390fd5b80915050919050565b60008073ffffffffffffffffffffffffffffffffffffffff168273ffffffffffffffffffffffffffffffffffffffff16141561099e576040517f08c379a000000000000000000000000000000000000000000000000000000000815260040161099590612e10565b60405180910390fd5b600360008373ffffffffffffffffffffffffffffffffffffffff1673ffffffffffffffffffffffffffffffffffffffff168152602001908152602001600020549050919050565b6060600180546109f4906131c4565b80601f0160208091040260200160405190810160405280929190818152602001828054610a20906131c4565b8015610a6d5780601f10610a4257610100808354040283529160200191610a6d565b820191906000526020600020905b815481529060010190602001808311610a5057829003601f168201915b5050505050905090565b610a89610a826112b9565b838361189f565b5050565b60606000610ac1610a9d846116bf565b604051602001610aad9190612b5a565b60405160208183030381529060405261186c565b9050600a8054905081610ad49190613270565b9050600a8181548110610b10577f4e487b7100000000000000000000000000000000000000000000000000000000600052603260045260246000fd5b906000526020600020018054610b25906131c4565b80601f0160208091040260200160405190810160405280929190818152602001828054610b51906131c4565b8015610b9e5780601f10610b7357610100808354040283529160200191610b9e565b820191906000526020600020905b815481529060010190602001808311610b8157829003601f168201915b5050505050915050919050565b610bbc610bb66112b9565b8361137a565b610bfb576040517f08c379a0000000000000000000000000000000000000000000000000000000008152600401610bf290612f10565b60405180910390fd5b610c0784848484611a0c565b50505050565b60606000610c41610c1d846116bf565b604051602001610c2d9190612b38565b60405160208183030381529060405261186c565b9050600b8054905081610c549190613270565b9050600b8181548110610c90577f4e487b7100000000000000000000000000000000000000000000000000000000600052603260045260246000fd5b906000526020600020018054610ca5906131c4565b80601f0160208091040260200160405190810160405280929190818152602001828054610cd1906131c4565b8015610d1e5780601f10610cf357610100808354040283529160200191610d1e565b820191906000526020600020905b815481529060010190602001808311610d0157829003601f168201915b5050505050915050919050565b6060610d368261124d565b610d75576040517f08c379a0000000000000000000000000000000000000000000000000000000008152600401610d6c90612e90565b60405180910390fd5b6000600660008481526020019081526020016000208054610d95906131c4565b80601f0160208091040260200160405190810160405280929190818152602001828054610dc1906131c4565b8015610e0e5780601f10610de357610100808354040283529160200191610e0e565b820191906000526020600020905b815481529060010190602001808311610df157829003601f168201915b505050505090506000610e1f611a68565b9050600081511415610e35578192505050610e78565b600082511115610e6a578082604051602001610e52929190612ab4565b60405160208183030381529060405292505050610e78565b610e7384611a7f565b925050505b919050565b6000610e89600761123f565b90506032811115610ecf576040517f08c379a0000000000000000000000000000000000000000000000000000000008152600401610ec690612d70565b60405180910390fd5b6000610eda8261073d565b90506000610ee783610a8d565b90506000610ef484610c0d565b90506000838383604051602001610f0d93929190612ad8565b60405160208183030381529060405290506000600882604051602001610f34929190612b09565b60405160208183030381529060405290506000610f7983610f5484611b26565b604051602001610f65929190612b7c565b604051602081830303815290604052611b26565b9050600081604051602001610f8e9190612be3565b6040516020818303038152906040529050610fdd6040518060400160405280601581526020017f0a2d2d2d2d2d2d2d2d2d2d2d2d2d2d2d2d2d2d2d2d000000000000000000000081525061113c565b610fe68161113c565b6110246040518060400160405280601581526020017f2d2d2d2d2d2d2d2d2d2d2d2d2d2d2d2d2d2d2d2d0a000000000000000000000081525061113c565b61102e3389611ce4565b6110388882611d02565b6110426007611d76565b611065604051806060016040528060258152602001613a2c602591398933611d8c565b7febb98688741ffa4c7589bf325de30cf7becb63de567842e1ccdb6cb949fdc82c3389604051611096929190612c6c565b60405180910390a15050505050505050565b6000600560008473ffffffffffffffffffffffffffffffffffffffff1673ffffffffffffffffffffffffffffffffffffffff16815260200190815260200160002060008373ffffffffffffffffffffffffffffffffffffffff1673ffffffffffffffffffffffffffffffffffffffff16815260200190815260200160002060009054906101000a900460ff16905092915050565b6111d2816040516024016111509190612cb0565b6040516020818303038152906040527f41304fac000000000000000000000000000000000000000000000000000000007bffffffffffffffffffffffffffffffffffffffffffffffffffffffff19166020820180517bffffffffffffffffffffffffffffffffffffffffffffffffffffffff8381831617835250505050611e2b565b50565b60007f01ffc9a7000000000000000000000000000000000000000000000000000000007bffffffffffffffffffffffffffffffffffffffffffffffffffffffff1916827bffffffffffffffffffffffffffffffffffffffffffffffffffffffff1916149050919050565b600081600001549050919050565b60008073ffffffffffffffffffffffffffffffffffffffff166002600084815260200190815260200160002060009054906101000a900473ffffffffffffffffffffffffffffffffffffffff1673ffffffffffffffffffffffffffffffffffffffff1614159050919050565b600033905090565b816004600083815260200190815260200160002060006101000a81548173ffffffffffffffffffffffffffffffffffffffff021916908373ffffffffffffffffffffffffffffffffffffffff160217905550808273ffffffffffffffffffffffffffffffffffffffff166113348361087b565b73ffffffffffffffffffffffffffffffffffffffff167f8c5be1e5ebec7d5bd14f71427d1e84f3dd0314c0f7b2291e5b200ac8c7c3b92560405160405180910390a45050565b60006113858261124d565b6113c4576040517f08c379a00000000000000000000000000000000000000000000000000000000081526004016113bb90612dd0565b60405180910390fd5b60006113cf8361087b565b90508073ffffffffffffffffffffffffffffffffffffffff168473ffffffffffffffffffffffffffffffffffffffff161480611411575061141081856110a8565b5b8061144f57508373ffffffffffffffffffffffffffffffffffffffff1661143784610540565b73ffffffffffffffffffffffffffffffffffffffff16145b91505092915050565b8273ffffffffffffffffffffffffffffffffffffffff166114788261087b565b73ffffffffffffffffffffffffffffffffffffffff16146114ce576040517f08c379a00000000000000000000000000000000000000000000000000000000081526004016114c590612d30565b60405180910390fd5b600073ffffffffffffffffffffffffffffffffffffffff168273ffffffffffffffffffffffffffffffffffffffff16141561153e576040517f08c379a000000000000000000000000000000000000000000000000000000000815260040161153590612d90565b60405180910390fd5b611549838383611e54565b6115546000826112c1565b6001600360008573ffffffffffffffffffffffffffffffffffffffff1673ffffffffffffffffffffffffffffffffffffffff16815260200190815260200160002060008282546115a491906130da565b925050819055506001600360008473ffffffffffffffffffffffffffffffffffffffff1673ffffffffffffffffffffffffffffffffffffffff16815260200190815260200160002060008282546115fb9190612ff9565b92505081905550816002600083815260200190815260200160002060006101000a81548173ffffffffffffffffffffffffffffffffffffffff021916908373ffffffffffffffffffffffffffffffffffffffff160217905550808273ffffffffffffffffffffffffffffffffffffffff168473ffffffffffffffffffffffffffffffffffffffff167fddf252ad1be2c89b69c2b068fc378daa952ba7f163c4a11628f55a4df523b3ef60405160405180910390a46116ba838383611e59565b505050565b60606000821415611707576040518060400160405280600181526020017f30000000000000000000000000000000000000000000000000000000000000008152509050611867565b600082905060005b6000821461173957808061172290613227565b915050600a82611732919061304f565b915061170f565b60008167ffffffffffffffff81111561177b577f4e487b7100000000000000000000000000000000000000000000000000000000600052604160045260246000fd5b6040519080825280601f01601f1916602001820160405280156117ad5781602001600182028036833780820191505090505b5090505b60008514611860576001826117c691906130da565b9150600a856117d59190613270565b60306117e19190612ff9565b60f81b81838151811061181d577f4e487b7100000000000000000000000000000000000000000000000000000000600052603260045260246000fd5b60200101907effffffffffffffffffffffffffffffffffffffffffffffffffffffffffffff1916908160001a905350600a85611859919061304f565b94506117b1565b8093505050505b919050565b60008160405160200161187f9190612a9d565b6040516020818303038152906040528051906020012060001c9050919050565b8173ffffffffffffffffffffffffffffffffffffffff168373ffffffffffffffffffffffffffffffffffffffff16141561190e576040517f08c379a000000000000000000000000000000000000000000000000000000000815260040161190590612db0565b60405180910390fd5b80600560008573ffffffffffffffffffffffffffffffffffffffff1673ffffffffffffffffffffffffffffffffffffffff16815260200190815260200160002060008473ffffffffffffffffffffffffffffffffffffffff1673ffffffffffffffffffffffffffffffffffffffff16815260200190815260200160002060006101000a81548160ff0219169083151502179055508173ffffffffffffffffffffffffffffffffffffffff168373ffffffffffffffffffffffffffffffffffffffff167f17307eab39ab6107e8899845ad3d59bd9653f200f220920489ca2b5937696c31836040516119ff9190612c95565b60405180910390a3505050565b611a17848484611458565b611a2384848484611e5e565b611a62576040517f08c379a0000000000000000000000000000000000000000000000000000000008152600401611a5990612d10565b60405180910390fd5b50505050565b606060405180602001604052806000815250905090565b6060611a8a8261124d565b611ac9576040517f08c379a0000000000000000000000000000000000000000000000000000000008152600401611ac090612ed0565b60405180910390fd5b6000611ad3611a68565b90506000815111611af35760405180602001604052806000815250611b1e565b80611afd846116bf565b604051602001611b0e929190612ab4565b6040516020818303038152906040525b915050919050565b60606000825190506000811415611b4f5760405180602001604052806000815250915050611cdf565b60006003600283611b609190612ff9565b611b6a919061304f565b6004611b769190613080565b90506000602082611b879190612ff9565b67ffffffffffffffff811115611bc6577f4e487b7100000000000000000000000000000000000000000000000000000000600052604160045260246000fd5b6040519080825280601f01601f191660200182016040528015611bf85781602001600182028036833780820191505090505b5090506000604051806060016040528060408152602001613a51604091399050600181016020830160005b86811015611c9c5760038101905062ffffff818a015116603f8160121c168401518060081b905060ff603f83600c1c1686015116810190508060081b905060ff603f8360061c1686015116810190508060081b905060ff603f831686015116810190508060e01b90508084526004840193505050611c23565b506003860660018114611cb65760028114611cc657611cd1565b613d3d60f01b6002830352611cd1565b603d60f81b60018303525b508484525050819450505050505b919050565b611cfe828260405180602001604052806000815250611ff5565b5050565b611d0b8261124d565b611d4a576040517f08c379a0000000000000000000000000000000000000000000000000000000008152600401611d4190612e50565b60405180910390fd5b80600660008481526020019081526020016000209080519060200190611d7192919061224d565b505050565b6001816000016000828254019250508190555050565b611e26838383604051602401611da493929190612cd2565b6040516020818303038152906040527fe3849f79000000000000000000000000000000000000000000000000000000007bffffffffffffffffffffffffffffffffffffffffffffffffffffffff19166020820180517bffffffffffffffffffffffffffffffffffffffffffffffffffffffff8381831617835250505050611e2b565b505050565b60008151905060006a636f6e736f6c652e6c6f679050602083016000808483855afa5050505050565b505050565b505050565b6000611e7f8473ffffffffffffffffffffffffffffffffffffffff16612050565b15611fe8578373ffffffffffffffffffffffffffffffffffffffff1663150b7a02611ea86112b9565b8786866040518563ffffffff1660e01b8152600401611eca9493929190612c20565b602060405180830381600087803b158015611ee457600080fd5b505af1925050508015611f1557506040513d601f19601f82011682018060405250810190611f129190612591565b60015b611f98573d8060008114611f45576040519150601f19603f3d011682016040523d82523d6000602084013e611f4a565b606091505b50600081511415611f90576040517f08c379a0000000000000000000000000000000000000000000000000000000008152600401611f8790612d10565b60405180910390fd5b805181602001fd5b63150b7a0260e01b7bffffffffffffffffffffffffffffffffffffffffffffffffffffffff1916817bffffffffffffffffffffffffffffffffffffffffffffffffffffffff191614915050611fed565b600190505b949350505050565b611fff8383612073565b61200c6000848484611e5e565b61204b576040517f08c379a000000000000000000000000000000000000000000000000000000000815260040161204290612d10565b60405180910390fd5b505050565b6000808273ffffffffffffffffffffffffffffffffffffffff163b119050919050565b600073ffffffffffffffffffffffffffffffffffffffff168273ffffffffffffffffffffffffffffffffffffffff1614156120e3576040517f08c379a00000000000000000000000000000000000000000000000000000000081526004016120da90612e70565b60405180910390fd5b6120ec8161124d565b1561212c576040517f08c379a000000000000000000000000000000000000000000000000000000000815260040161212390612d50565b60405180910390fd5b61213860008383611e54565b6001600360008473ffffffffffffffffffffffffffffffffffffffff1673ffffffffffffffffffffffffffffffffffffffff16815260200190815260200160002060008282546121889190612ff9565b92505081905550816002600083815260200190815260200160002060006101000a81548173ffffffffffffffffffffffffffffffffffffffff021916908373ffffffffffffffffffffffffffffffffffffffff160217905550808273ffffffffffffffffffffffffffffffffffffffff16600073ffffffffffffffffffffffffffffffffffffffff167fddf252ad1be2c89b69c2b068fc378daa952ba7f163c4a11628f55a4df523b3ef60405160405180910390a461224960008383611e59565b5050565b828054612259906131c4565b90600052602060002090601f01602090048101928261227b57600085556122c2565b82601f1061229457805160ff19168380011785556122c2565b828001600101855582156122c2579182015b828111156122c15782518255916020019190600101906122a6565b5b5090506122cf91906122d3565b5090565b5b808211156122ec5760008160009055506001016122d4565b5090565b60006123036122fe84612f70565b612f4b565b90508281526020810184848401111561231b57600080fd5b612326848285613182565b509392505050565b60008135905061233d816139cf565b92915050565b600081359050612352816139e6565b92915050565b600081359050612367816139fd565b92915050565b60008151905061237c816139fd565b92915050565b600082601f83011261239357600080fd5b81356123a38482602086016122f0565b91505092915050565b6000813590506123bb81613a14565b92915050565b6000602082840312156123d357600080fd5b60006123e18482850161232e565b91505092915050565b600080604083850312156123fd57600080fd5b600061240b8582860161232e565b925050602061241c8582860161232e565b9150509250929050565b60008060006060848603121561243b57600080fd5b60006124498682870161232e565b935050602061245a8682870161232e565b925050604061246b868287016123ac565b9150509250925092565b6000806000806080858703121561248b57600080fd5b60006124998782880161232e565b94505060206124aa8782880161232e565b93505060406124bb878288016123ac565b925050606085013567ffffffffffffffff8111156124d857600080fd5b6124e487828801612382565b91505092959194509250565b6000806040838503121561250357600080fd5b60006125118582860161232e565b925050602061252285828601612343565b9150509250929050565b6000806040838503121561253f57600080fd5b600061254d8582860161232e565b925050602061255e858286016123ac565b9150509250929050565b60006020828403121561257a57600080fd5b600061258884828501612358565b91505092915050565b6000602082840312156125a357600080fd5b60006125b18482850161236d565b91505092915050565b6000602082840312156125cc57600080fd5b60006125da848285016123ac565b91505092915050565b6125ec8161310e565b82525050565b6125fb81613120565b82525050565b600061260c82612fb6565b6126168185612fcc565b9350612626818560208601613191565b61262f8161335d565b840191505092915050565b600061264582612fc1565b61264f8185612fdd565b935061265f818560208601613191565b6126688161335d565b840191505092915050565b600061267e82612fc1565b6126888185612fee565b9350612698818560208601613191565b80840191505092915050565b600081546126b1816131c4565b6126bb8186612fee565b945060018216600081146126d657600181146126e75761271a565b60ff1983168652818601935061271a565b6126f085612fa1565b60005b83811015612712578154818901526001820191506020810190506126f3565b838801955050505b50505092915050565b6000612730603283612fdd565b915061273b8261336e565b604082019050919050565b6000612753602583612fdd565b915061275e826133bd565b604082019050919050565b6000612776601c83612fdd565b91506127818261340c565b602082019050919050565b6000612799600a83612fee565b91506127a482613435565b600a82019050919050565b60006127bc601983612fdd565b91506127c78261345e565b602082019050919050565b60006127df602483612fdd565b91506127ea82613487565b604082019050919050565b6000612802601983612fdd565b915061280d826134d6565b602082019050919050565b6000612825606383612fee565b9150612830826134ff565b606382019050919050565b6000612848600b83612fee565b91506128538261359a565b600b82019050919050565b600061286b602c83612fdd565b9150612876826135c3565b604082019050919050565b600061288e600d83612fee565b915061289982613612565b600d82019050919050565b60006128b1603883612fdd565b91506128bc8261363b565b604082019050919050565b60006128d4602a83612fdd565b91506128df8261368a565b604082019050919050565b60006128f7602983612fdd565b9150612902826136d9565b604082019050919050565b600061291a602e83612fdd565b915061292582613728565b604082019050919050565b600061293d600283612fee565b915061294882613777565b600282019050919050565b6000612960602083612fdd565b915061296b826137a0565b602082019050919050565b6000612983603183612fdd565b915061298e826137c9565b604082019050919050565b60006129a6602c83612fdd565b91506129b182613818565b604082019050919050565b60006129c9602f83612fdd565b91506129d482613867565b604082019050919050565b60006129ec600a83612fee565b91506129f7826138b6565b600a82019050919050565b6000612a0f602183612fdd565b9150612a1a826138df565b604082019050919050565b6000612a32600a83612fee565b9150612a3d8261392e565b600a82019050919050565b6000612a55601d83612fee565b9150612a6082613957565b601d82019050919050565b6000612a78603183612fdd565b9150612a8382613980565b604082019050919050565b612a9781613178565b82525050565b6000612aa98284612673565b915081905092915050565b6000612ac08285612673565b9150612acc8284612673565b91508190509392505050565b6000612ae48286612673565b9150612af08285612673565b9150612afc8284612673565b9150819050949350505050565b6000612b1582856126a4565b9150612b218284612673565b9150612b2c82612881565b91508190509392505050565b6000612b438261278c565b9150612b4f8284612673565b915081905092915050565b6000612b658261283b565b9150612b718284612673565b915081905092915050565b6000612b87826129df565b9150612b938285612673565b9150612b9e82612818565b9150612baa8284612673565b9150612bb582612930565b91508190509392505050565b6000612bcc82612a25565b9150612bd88284612673565b915081905092915050565b6000612bee82612a48565b9150612bfa8284612673565b915081905092915050565b6000602082019050612c1a60008301846125e3565b92915050565b6000608082019050612c3560008301876125e3565b612c4260208301866125e3565b612c4f6040830185612a8e565b8181036060830152612c618184612601565b905095945050505050565b6000604082019050612c8160008301856125e3565b612c8e6020830184612a8e565b9392505050565b6000602082019050612caa60008301846125f2565b92915050565b60006020820190508181036000830152612cca818461263a565b905092915050565b60006060820190508181036000830152612cec818661263a565b9050612cfb6020830185612a8e565b612d0860408301846125e3565b949350505050565b60006020820190508181036000830152612d2981612723565b9050919050565b60006020820190508181036000830152612d4981612746565b9050919050565b60006020820190508181036000830152612d6981612769565b9050919050565b60006020820190508181036000830152612d89816127af565b9050919050565b60006020820190508181036000830152612da9816127d2565b9050919050565b60006020820190508181036000830152612dc9816127f5565b9050919050565b60006020820190508181036000830152612de98161285e565b9050919050565b60006020820190508181036000830152612e09816128a4565b9050919050565b60006020820190508181036000830152612e29816128c7565b9050919050565b60006020820190508181036000830152612e49816128ea565b9050919050565b60006020820190508181036000830152612e698161290d565b9050919050565b60006020820190508181036000830152612e8981612953565b9050919050565b60006020820190508181036000830152612ea981612976565b9050919050565b60006020820190508181036000830152612ec981612999565b9050919050565b60006020820190508181036000830152612ee9816129bc565b9050919050565b60006020820190508181036000830152612f0981612a02565b9050919050565b60006020820190508181036000830152612f2981612a6b565b9050919050565b6000602082019050612f456000830184612a8e565b92915050565b6000612f55612f66565b9050612f6182826131f6565b919050565b6000604051905090565b600067ffffffffffffffff821115612f8b57612f8a61332e565b5b612f948261335d565b9050602081019050919050565b60008190508160005260206000209050919050565b600081519050919050565b600081519050919050565b600082825260208201905092915050565b600082825260208201905092915050565b600081905092915050565b600061300482613178565b915061300f83613178565b9250827fffffffffffffffffffffffffffffffffffffffffffffffffffffffffffffffff03821115613044576130436132a1565b5b828201905092915050565b600061305a82613178565b915061306583613178565b925082613075576130746132d0565b5b828204905092915050565b600061308b82613178565b915061309683613178565b9250817fffffffffffffffffffffffffffffffffffffffffffffffffffffffffffffffff04831182151516156130cf576130ce6132a1565b5b828202905092915050565b60006130e582613178565b91506130f083613178565b925082821015613103576131026132a1565b5b828203905092915050565b600061311982613158565b9050919050565b60008115159050919050565b60007fffffffff0000000000000000000000000000000000000000000000000000000082169050919050565b600073ffffffffffffffffffffffffffffffffffffffff82169050919050565b6000819050919050565b82818337600083830152505050565b60005b838110156131af578082015181840152602081019050613194565b838111156131be576000848401525b50505050565b600060028204905060018216806131dc57607f821691505b602082108114156131f0576131ef6132ff565b5b50919050565b6131ff8261335d565b810181811067ffffffffffffffff8211171561321e5761321d61332e565b5b80604052505050565b600061323282613178565b91507fffffffffffffffffffffffffffffffffffffffffffffffffffffffffffffffff821415613265576132646132a1565b5b600182019050919050565b600061327b82613178565b915061328683613178565b925082613296576132956132d0565b5b828206905092915050565b7f4e487b7100000000000000000000000000000000000000000000000000000000600052601160045260246000fd5b7f4e487b7100000000000000000000000000000000000000000000000000000000600052601260045260246000fd5b7f4e487b7100000000000000000000000000000000000000000000000000000000600052602260045260246000fd5b7f4e487b7100000000000000000000000000000000000000000000000000000000600052604160045260246000fd5b6000601f19601f8301169050919050565b7f4552433732313a207472616e7366657220746f206e6f6e20455243373231526560008201527f63656976657220696d706c656d656e7465720000000000000000000000000000602082015250565b7f4552433732313a207472616e736665722066726f6d20696e636f72726563742060008201527f6f776e6572000000000000000000000000000000000000000000000000000000602082015250565b7f4552433732313a20746f6b656e20616c7265616479206d696e74656400000000600082015250565b7f54484952445f574f524400000000000000000000000000000000000000000000600082015250565b7f416c6c203530204e465473207265206d696e746564206f757400000000000000600082015250565b7f4552433732313a207472616e7366657220746f20746865207a65726f2061646460008201527f7265737300000000000000000000000000000000000000000000000000000000602082015250565b7f4552433732313a20617070726f766520746f2063616c6c657200000000000000600082015250565b7f222c20226465736372697074696f6e223a20224120686967686c79206163636c60008201527f61696d656420636f6c6c656374696f6e206f6620737175617265732e222c202260208201527f696d616765223a2022646174613a696d6167652f7376672b786d6c3b6261736560408201527f36342c0000000000000000000000000000000000000000000000000000000000606082015250565b7f5345434f4e445f574f5244000000000000000000000000000000000000000000600082015250565b7f4552433732313a206f70657261746f7220717565727920666f72206e6f6e657860008201527f697374656e7420746f6b656e0000000000000000000000000000000000000000602082015250565b7f3c2f746578743e3c2f7376673e00000000000000000000000000000000000000600082015250565b7f4552433732313a20617070726f76652063616c6c6572206973206e6f74206f7760008201527f6e6572206e6f7220617070726f76656420666f7220616c6c0000000000000000602082015250565b7f4552433732313a2062616c616e636520717565727920666f7220746865207a6560008201527f726f206164647265737300000000000000000000000000000000000000000000602082015250565b7f4552433732313a206f776e657220717565727920666f72206e6f6e657869737460008201527f656e7420746f6b656e0000000000000000000000000000000000000000000000602082015250565b7f45524337323155524953746f726167653a2055524920736574206f66206e6f6e60008201527f6578697374656e7420746f6b656e000000000000000000000000000000000000602082015250565b7f227d000000000000000000000000000000000000000000000000000000000000600082015250565b7f4552433732313a206d696e7420746f20746865207a65726f2061646472657373600082015250565b7f45524337323155524953746f726167653a2055524920717565727920666f722060008201527f6e6f6e6578697374656e7420746f6b656e000000000000000000000000000000602082015250565b7f4552433732313a20617070726f76656420717565727920666f72206e6f6e657860008201527f697374656e7420746f6b656e0000000000000000000000000000000000000000602082015250565b7f4552433732314d657461646174613a2055524920717565727920666f72206e6f60008201527f6e6578697374656e7420746f6b656e0000000000000000000000000000000000602082015250565b7f7b226e616d65223a202200000000000000000000000000000000000000000000600082015250565b7f4552433732313a20617070726f76616c20746f2063757272656e74206f776e6560008201527f7200000000000000000000000000000000000000000000000000000000000000602082015250565b7f46495253545f574f524400000000000000000000000000000000000000000000600082015250565b7f646174613a6170706c69636174696f6e2f6a736f6e3b6261736536342c000000600082015250565b7f4552433732313a207472616e736665722063616c6c6572206973206e6f74206f60008201527f776e6572206e6f7220617070726f766564000000000000000000000000000000602082015250565b6139d88161310e565b81146139e357600080fd5b50565b6139ef81613120565b81146139fa57600080fd5b50565b613a068161312c565b8114613a1157600080fd5b50565b613a1d81613178565b8114613a2857600080fd5b5056fe416e204e465420772f20494420257320686173206265656e206d696e74656420746f2025734142434445464748494a4b4c4d4e4f505152535455565758595a6162636465666768696a6b6c6d6e6f707172737475767778797a303132333435363738392b2fa26469706673582212205184422ecf97b784430d9c98bd66f3e863366a7f7bcfcef6a013ee1b1dc8ec9764736f6c634300080100333c73766720786d6c6e733d27687474703a2f2f7777772e77332e6f72672f323030302f73766727207072657365727665417370656374526174696f3d27784d696e594d696e206d656574272076696577426f783d273020302033353020333530273e3c7374796c653e2e62617365207b2066696c6c3a2077686974653b20666f6e742d66616d696c793a2073657269663b20666f6e742d73697a653a20323470783b207d3c2f7374796c653e3c726563742077696474683d273130302527206865696768743d2731303025272066696c6c3d27626c61636b27202f3e3c7465787420783d273530252720793d273530252720636c6173733d27626173652720646f6d696e616e742d626173656c696e653d276d6964646c652720746578742d616e63686f723d276d6964646c65273e",
  "linkReferences": {},
  "deployedLinkReferences": {}
}